:020000040000FA
:1000000001288501860183160430850086018B0155
:10001000831207309F00162000001E2000002B20B6
:1000200000003E200000572000000B280614861612
:100030007620861276200610861608008614762012
:1000400086127620861086168614762086127620F2
:100050008610861608000615762086127620061170
:100060008616061576208612762006118616061547
:1000700076208612762006118616080086157620D0
:1000800086127620861186168615762086127620B0
:10009000861186168615762086127620861186169B
:1000A000861576208612762086118616080006169A
:1000B000762086127620061286160616762086127E
:1000C00076200612861606167620861276200612EE
:1000D00086160616762086127620061286160616D4
:1000E0007620861276200612861608000730A000B9
:1000F0001630A1004330A200A00B802800000800A9
:0C010000A10B83287C28A20B83288028F8
:04010C000034003487
:02400E00103F61
:00000001FF
