:020000040000FA
:1000000001280613850186018316043085008601C8
:100010008B01831207309F001C20061B812825209E
:10002000061B81283320061B9B284720061BA4287B
:100030006120061BAD280C28061306148616B62070
:100040008612B62006108616080006138614B620FF
:100050008612B620861086168614B6208612B62022
:1000600086108616080006130615B6208612B620DE
:10007000061186160615B6208612B62006118616BB
:100080000615B6208612B62006118616080006133D
:100090008615B6208612B620861186168615B620DD
:1000A0008612B620861186168615B6208612B620D0
:1000B000861186168615B6208612B62086118616FB
:1000C000080006130616B6208612B62006128616FB
:1000D0000616B6208612B620061286160616B6201A
:1000E0008612B620061286160616B6208612B6208E
:1000F000061286160616B6208612B6200612861638
:10010000080006130614B6208612B62006108616BE
:100110000614B6208612B620061086160614B620DF
:100120008612B620061086160614B6208612B62051
:10013000061086160C28061386148616B62086121C
:10014000B620861086168128061306158616B62058
:100150008612B620061186169B280613861586166B
:10016000B6208612B62086118616A4281930A00063
:100170000000061FC820A00BB9280800061FC820D1
:10018000A10BC328B928061FC820A20BC328BE286C
:100190000519D628CC2808000617E020E0200130F9
:1001A000A0000130A1000130A200CB283530A3000F
:1001B000CA30A400A30BDD28CB28A40BDD28DA2845
:1001C0000730A0001630A1004430A200A00BE9289F
:0E01D0000800A10BEC28E628A20BEC28E92879
:02400E00103F61
:00000001FF
