:020000040000FA
:1000000001288501860183160430850086018B0155
:10001000831207309F001D200000252000003220A1
:100020000000452000005E20000045200000322036
:100030000000252000001D200B2806148616A12094
:100040008612A1200610861608008614A1208612AA
:10005000A120861086168614A1208612A120861063
:10006000861608000615A1208612A1200611861604
:100070000615A1208612A120061186160615A120BC
:100080008612A1200611861608008615A120861268
:10009000A120861186168615A1208612A120861120
:1000A00086168615A1208612A12086118616861531
:1000B000A1208612A1208611861608000616A1200E
:1000C0008612A120061286160616A1208612A120ED
:1000D000061286160616A1208612A1200612861682
:1000E0000616A1208612A120061286160616A12049
:1000F0008612A12006128616080006148616A12074
:100100008612A1200610861606148616A1208612D5
:10011000A1200610861606148616A1208612A1209C
:100120000610861606148616A1208612A120061037
:10013000861606148616A1208612A12006108616A1
:1001400008000730A0001630A1004330A200A00B29
:10015000AB2800000800A10BAE28A728A20BAE28F0
:02016000AB28CA
:040162000034003431
:02400E00103F61
:00000001FF
