:020000040000FA
:1000000001280613850186018316043085008601C8
:100010008B01831207309F001E20061B0C2827200F
:10002000061B0C283520061B1B284920061B1A28F6
:1000300063204920352027201E200C280613061493
:100040008616832086128320061086160800061363
:1000500086148320861283208610861686148320B9
:100060008612832086108616080006130615832044
:100070008612832006118616061583208612832099
:100080000611861606158320861283200611861611
:100090000800061386158320861283208611861693
:1000A0008615832086128320861186168615832066
:1000B0008612832086118616861583208612832059
:1000C00086118616080006130616832086128320E2
:1000D00006128616061683208612832006128616BE
:1000E00006168320861283200612861606168320A3
:1000F0008612832006128616061683208612832017
:100100000612861608000330A0001930A1000F3037
:10011000A200061F9820A00B8E280800061F98201A
:10012000A10B93288928061F9820A20B93288E28BC
:100130000519A0209C2008000617832883289B28E7
:100140002830A3002830A400A30BA7289A28A40BCA
:04015000A728A42810
:02400E00103F61
:00000001FF
