:020000040000FA
:1000000001288501860183160430850086018B0155
:10001000831207309F001D20061B0B282620061B7D
:100020000B283420061B1A284820061B192862209A
:100030004820342026201D200B280613061486167F
:100040008220861282200610861608000613861467
:1000500082208612822086108616861482208612BE
:100060008220861086160800061306158220861246
:10007000822006118616061582208612822006111D
:100080008616061582208612822006118616080022
:100090000613861582208612822086118616861502
:1000A000822086128220861186168615822086126C
:1000B000822086118616861582208612822086115D
:1000C0008616080006130616822086128220061263
:1000D00086160616822086128220061286160616BC
:1000E000822086128220061286160616822086122A
:1000F000822006128616061682208612822006129A
:10010000861608000330A0001930A1000F30A200AD
:10011000061F9720A00B8D280800061F9720A10B13
:1001200092288828061F9720A20B92288D2805194F
:100130009F209B2008000617822882289A282830B2
:10014000A3002830A400A30BA6289928A40BA62856
:02015000A328E2
:040152000034003441
:02400E00103F61
:00000001FF
