:020000040000FA
:1000000001288501860183160430850086018B0155
:10001000831207309F001D200000252000003220A1
:100020000000452000005E20000045200000322036
:100030000000252000001D200B28061486167D20B8
:1000400086127D2006108616080086147D208612F2
:100050007D208610861686147D2086127D208610CF
:100060008616080006157D2086127D20061186164C
:1000700006157D2086127D200611861606157D2028
:1000800086127D2006118616080086157D208612B0
:100090007D208611861686157D2086127D2086118C
:1000A000861686157D2086127D2086118616861579
:1000B0007D2086127D2086118616080006167D207A
:1000C00086127D200612861606167D2086127D2059
:1000D0000612861606167D2086127D2006128616CA
:1000E00006167D2086127D200612861606167D20B5
:1000F00086127D200612861608003630A0003430A5
:10010000A1008520A00B7F2808007430A2008C205D
:10011000A10B85288F200800A20B8C280800051948
:0A012000080093200800000008000A
:04012A000034003469
:02400E00103F61
:00000001FF
