:020000040000FA
:1000000001280613850186018316043085008601C8
:100010008B01831207309F002820061B8D2831207A
:10002000061B8D283F20061BA7285320061BB0283F
:100030006D20061BB9285320061BB0283F20061B45
:10004000A7283120061B8D282820061B8D280C2868
:10005000061306148616C2208612C22006108616C3
:10006000080006138614C2208612C2208610861647
:100070008614C2208612C220861086160800061337
:100080000615C2208612C220061186160615C22049
:100090008612C220061186160615C2208612C220BC
:1000A00006118616080006138615C2208612C22085
:1000B000861186168615C2208612C22086118616E3
:1000C0008615C2208612C220861186168615C22089
:1000D0008612C22086118616080006130616C22054
:1000E0008612C220061286160616C2208612C2206A
:1000F000061286160616C2208612C2200612861620
:100100000616C2208612C220061286160616C220C5
:100110008612C22006128616080006130614C22094
:100120008612C220061086160614C2208612C2202D
:10013000061086160614C2208612C22006108616E5
:100140000614C2208612C220061086160C2806133A
:1001500086148616C2208612C220861086168D2826
:10016000061306158616C2208612C22006118616B0
:10017000A728061386158616C2208612C22086116D
:100180008616B0281930A0000000061FD420A00B4E
:10019000C5280800061FD420A10BCF28C528061F9C
:1001A000D420A20BCF28CA280519E428D828080093
:1001B00006178616EE208612EE200130A0000130D0
:1001C000A1000130A200D7283530A300CA30A40016
:1001D000A30BEB28D728A40BEB28E8280730A000B6
:1001E0001630A1004430A200A00BF7280800A10B94
:0A01F000FA28F428A20BFA28F728D9
:02400E00103F61
:00000001FF
