:020000040000FA
:1000000001280613850186018316043085008601C8
:100010008B01831207309F001E20061B0C2827200F
:10002000061B0C283520061B1B284920061B1A28F6
:1000300063204920352027201E200C280613061493
:100040008616832086128320061086160800061363
:1000500086148320861283208610861686148320B9
:100060008612832086108616080006130615832044
:100070008612832006118616061583208612832099
:100080000611861606158320861283200611861611
:100090000800061386158320861283208611861693
:1000A0008615832086128320861186168615832066
:1000B0008612832086118616861583208612832059
:1000C00086118616080006130616832086128320E2
:1000D00006128616061683208612832006128616BE
:1000E00006168320861283200612861606168320A3
:1000F0008612832006128616061683208612832017
:100100000612861608000330A0001930A1000F3037
:10011000A2000000061F9920A00B8F280800061FD0
:100120009920A10B94288A28061F9920A20B9428B5
:100130008F280519A62808000617B020B020013026
:10014000A0000130A1000130A2009B282830A300AC
:100150002830A400A30BAD289B28A40BAD28AA2807
:100160000330A0001930A1000F30A2000000A00B46
:10017000BA280800A10BBD28B728A20BBD28BA28B1
:02400E00103F61
:00000001FF
