:020000040000FA
:1000000001280613850186018316043085008601C8
:100010008B01831207309F001E20061B0C2827200F
:10002000061B0C283520061B1B284920061B1A28F6
:1000300063204920352027201E200C280613061493
:100040008616832086128320061086160800061363
:1000500086148320861283208610861686148320B9
:100060008612832086108616080006130615832044
:100070008612832006118616061583208612832099
:100080000611861606158320861283200611861611
:100090000800061386158320861283208611861693
:1000A0008615832086128320861186168615832066
:1000B0008612832086118616861583208612832059
:1000C00086118616080006130616832086128320E2
:1000D00006128616061683208612832006128616BE
:1000E00006168320861283200612861606168320A3
:1000F0008612832006128616061683208612832017
:100100000612861608001930A0000000061F952070
:10011000A00B86280800061F9520A10B9028862892
:10012000061F9520A20B90288B280519A328992833
:1001300008000617AD20AD200130A0000130A1005D
:100140000130A20098283530A300CA30A400A30BC8
:10015000AA289828A40BAA28A7280730A0001630A0
:10016000A1004430A200A00BB6280800A10BB928BA
:08017000B328A20BB928B62840
:02400E00103F61
:00000001FF
